{
  "address": "0x4bcEC415a9C999b6105DBC4a4b6931140BF95196",
  "abi": [
    {
      "inputs": [
        {
          "internalType": "address",
          "name": "_inputOracle",
          "type": "address"
        },
        {
          "internalType": "int256",
          "name": "_numPeriods",
          "type": "int256"
        },
        {
          "internalType": "uint256",
          "name": "_updateInterval",
          "type": "uint256"
        },
        {
          "internalType": "address",
          "name": "_deployer",
          "type": "address"
        },
        {
          "internalType": "address",
          "name": "_poolKeeper",
          "type": "address"
        },
        {
          "internalType": "address",
          "name": "_gov",
          "type": "address"
        }
      ],
      "stateMutability": "nonpayable",
      "type": "constructor"
    },
    {
      "inputs": [],
      "name": "MAX_PERIODS",
      "outputs": [
        {
          "internalType": "int8",
          "name": "",
          "type": "int8"
        }
      ],
      "stateMutability": "view",
      "type": "function"
    },
    {
      "inputs": [],
      "name": "decimals",
      "outputs": [
        {
          "internalType": "uint8",
          "name": "",
          "type": "uint8"
        }
      ],
      "stateMutability": "view",
      "type": "function"
    },
    {
      "inputs": [],
      "name": "deployer",
      "outputs": [
        {
          "internalType": "address",
          "name": "",
          "type": "address"
        }
      ],
      "stateMutability": "view",
      "type": "function"
    },
    {
      "inputs": [
        {
          "internalType": "int256",
          "name": "wad",
          "type": "int256"
        }
      ],
      "name": "fromWad",
      "outputs": [
        {
          "internalType": "int256",
          "name": "",
          "type": "int256"
        }
      ],
      "stateMutability": "view",
      "type": "function"
    },
    {
      "inputs": [],
      "name": "getPrice",
      "outputs": [
        {
          "internalType": "int256",
          "name": "",
          "type": "int256"
        }
      ],
      "stateMutability": "view",
      "type": "function"
    },
    {
      "inputs": [],
      "name": "getPriceAndMetadata",
      "outputs": [
        {
          "internalType": "int256",
          "name": "_price",
          "type": "int256"
        },
        {
          "internalType": "bytes",
          "name": "_data",
          "type": "bytes"
        }
      ],
      "stateMutability": "view",
      "type": "function"
    },
    {
      "inputs": [],
      "name": "governance",
      "outputs": [
        {
          "internalType": "address",
          "name": "",
          "type": "address"
        }
      ],
      "stateMutability": "view",
      "type": "function"
    },
    {
      "inputs": [],
      "name": "lastUpdate",
      "outputs": [
        {
          "internalType": "uint256",
          "name": "",
          "type": "uint256"
        }
      ],
      "stateMutability": "view",
      "type": "function"
    },
    {
      "inputs": [],
      "name": "numPeriods",
      "outputs": [
        {
          "internalType": "int256",
          "name": "",
          "type": "int256"
        }
      ],
      "stateMutability": "view",
      "type": "function"
    },
    {
      "inputs": [],
      "name": "oracle",
      "outputs": [
        {
          "internalType": "address",
          "name": "",
          "type": "address"
        }
      ],
      "stateMutability": "view",
      "type": "function"
    },
    {
      "inputs": [],
      "name": "periodCount",
      "outputs": [
        {
          "internalType": "int256",
          "name": "",
          "type": "int256"
        }
      ],
      "stateMutability": "view",
      "type": "function"
    },
    {
      "inputs": [],
      "name": "poll",
      "outputs": [
        {
          "internalType": "int256",
          "name": "",
          "type": "int256"
        }
      ],
      "stateMutability": "nonpayable",
      "type": "function"
    },
    {
      "inputs": [],
      "name": "poolKeeper",
      "outputs": [
        {
          "internalType": "address",
          "name": "",
          "type": "address"
        }
      ],
      "stateMutability": "view",
      "type": "function"
    },
    {
      "inputs": [
        {
          "internalType": "int256",
          "name": "",
          "type": "int256"
        }
      ],
      "name": "prices",
      "outputs": [
        {
          "internalType": "int256",
          "name": "",
          "type": "int256"
        }
      ],
      "stateMutability": "view",
      "type": "function"
    },
    {
      "inputs": [],
      "name": "scaler",
      "outputs": [
        {
          "internalType": "int256",
          "name": "",
          "type": "int256"
        }
      ],
      "stateMutability": "view",
      "type": "function"
    },
    {
      "inputs": [
        {
          "internalType": "address",
          "name": "_governance",
          "type": "address"
        }
      ],
      "name": "setGovernance",
      "outputs": [],
      "stateMutability": "nonpayable",
      "type": "function"
    },
    {
      "inputs": [
        {
          "internalType": "address",
          "name": "_poolKeeper",
          "type": "address"
        }
      ],
      "name": "setPoolKeeper",
      "outputs": [],
      "stateMutability": "nonpayable",
      "type": "function"
    },
    {
      "inputs": [],
      "name": "updateInterval",
      "outputs": [
        {
          "internalType": "uint256",
          "name": "",
          "type": "uint256"
        }
      ],
      "stateMutability": "view",
      "type": "function"
    }
  ],
  "transactionHash": "0xde480763dc794b708dfd7ce02a30967c64f9e2baf942f7ee1671bd8f35f42409",
  "args": [
    "0xB54f3e22a69f76c9529C09A72dd528929812d4Ac",
    8,
    3600,
    "0xd9c281C5501c3Fe2C95587A99C9d0a54dDa63712",
    "0xd9c281C5501c3Fe2C95587A99C9d0a54dDa63712",
    "0xd9c281C5501c3Fe2C95587A99C9d0a54dDa63712"
  ],
  "solcInputHash": "c531ec4aa0c6e728e159c9fdfa70dead",
  "bytecode": "0x6101206040523480156200001257600080fd5b5060405162000f0638038062000f06833981016040819052620000359162000273565b6001600160a01b038616158015906200005657506001600160a01b03831615155b80156200006b57506001600160a01b03821615155b80156200008057506001600160a01b03811615155b620000d25760405162461bcd60e51b815260206004820152601b60248201527f534d413a204e756c6c206164647265737320666f7262696464656e000000000060448201526064015b60405180910390fd5b600085138015620000e4575060188513155b620001275760405162461bcd60e51b8152602060048201526012602482015271534d413a204f7574206f6620626f756e647360701b6044820152606401620000c9565b83620001765760405162461bcd60e51b815260206004820181905260248201527f534d413a2055706461746520696e74657276616c2063616e6e6f7420626520306044820152606401620000c9565b6000866001600160a01b031663313ce5676040518163ffffffff1660e01b815260040160206040518083038186803b158015620001b257600080fd5b505afa158015620001c7573d6000803e3d6000fd5b505050506040513d601f19601f82011682018060405250810190620001ed9190620002e2565b9050620001fc81601262000324565b6200020990600a62000449565b610100525060c09490945260e0929092526001600160a01b03938416608052831660a052600480549184166001600160a01b0319928316179055600280549290931691161790556200045a565b80516001600160a01b03811681146200026e57600080fd5b919050565b60008060008060008060c087890312156200028d57600080fd5b620002988762000256565b95506020870151945060408701519350620002b66060880162000256565b9250620002c66080880162000256565b9150620002d660a0880162000256565b90509295509295509295565b600060208284031215620002f557600080fd5b815160ff811681146200030757600080fd5b9392505050565b634e487b7160e01b600052601160045260246000fd5b600060ff821660ff8416808210156200034157620003416200030e565b90039392505050565b600181815b808511156200038b5781600019048211156200036f576200036f6200030e565b808516156200037d57918102915b93841c93908002906200034f565b509250929050565b600082620003a45750600162000443565b81620003b35750600062000443565b8160018114620003cc5760028114620003d757620003f7565b600191505062000443565b60ff841115620003eb57620003eb6200030e565b50506001821b62000443565b5060208310610133831016604e8410600b84101617156200041c575081810a62000443565b6200042883836200034a565b80600019048211156200043f576200043f6200030e565b0290505b92915050565b60006200030760ff84168362000393565b60805160a05160c05160e05161010051610a2f620004d760003960008181610185015281816102fe01526107860152600081816102d5015261046e0152600081816102ae015281816105a9015281816105d2015281816106fb01526107240152600061027101526000818161021501526106480152610a2f6000f3fe608060405234801561001057600080fd5b50600436106101165760003560e01c80637f197519116100a2578063c046371111610071578063c046371114610263578063d5f394881461026c578063db6d8fcf14610293578063dcd65479146102a9578063fd2c80ae146102d057600080fd5b80637f1975191461023757806398d5fdca14610240578063a117527914610248578063ab033ea91461025057600080fd5b8063412ad1cc116100e9578063412ad1cc146101b5578063430ed6eb146101c85780635aa6e675146101dd57806361aaf0b3146101f05780637dc0d1d01461021057600080fd5b80630a2546401461011b578063178f9e351461013b578063313ce567146101665780633c1e6ff514610180575b600080fd5b610123601881565b60405160009190910b81526020015b60405180910390f35b60045461014e906001600160a01b031681565b6040516001600160a01b039091168152602001610132565b61016e601281565b60405160ff9091168152602001610132565b6101a77f000000000000000000000000000000000000000000000000000000000000000081565b604051908152602001610132565b6101a76101c33660046107ab565b6102f7565b6101db6101d63660046107c4565b610329565b005b60025461014e906001600160a01b031681565b6101a76101fe3660046107ab565b60006020819052908152604090205481565b61014e7f000000000000000000000000000000000000000000000000000000000000000081565b6101a760015481565b6101a7610400565b6101a761040f565b6101db61025e3660046107c4565b6104b0565b6101a760035481565b61014e7f000000000000000000000000000000000000000000000000000000000000000081565b61029b610582565b6040516101329291906107f4565b6101a77f000000000000000000000000000000000000000000000000000000000000000081565b6101a77f000000000000000000000000000000000000000000000000000000000000000081565b60006103237f000000000000000000000000000000000000000000000000000000000000000083610867565b92915050565b6002546001600160a01b031633146103885760405162461bcd60e51b815260206004820181905260248201527f534d413a204f6e6c792063616c6c61626c6520627920676f7665726e616e636560448201526064015b60405180910390fd5b6001600160a01b0381166103de5760405162461bcd60e51b815260206004820152601b60248201527f534d413a204e756c6c206164647265737320666f7262696464656e0000000000604482015260640161037f565b600480546001600160a01b0319166001600160a01b0392909216919091179055565b600061040a610594565b905090565b6004546000906001600160a01b0316331461046c5760405162461bcd60e51b815260206004820181905260248201527f534d413a204f6e6c792063616c6c61626c6520627920506f6f6c4b6565706572604482015260640161037f565b7f000000000000000000000000000000000000000000000000000000000000000060035461049a91906108a3565b42106104a8576104a8610644565b61040a610594565b6002546001600160a01b0316331461050a5760405162461bcd60e51b815260206004820181905260248201527f534d413a204f6e6c792063616c6c61626c6520627920676f7665726e616e6365604482015260640161037f565b6001600160a01b0381166105605760405162461bcd60e51b815260206004820152601b60248201527f534d413a204e756c6c206164647265737320666f7262696464656e0000000000604482015260640161037f565b600280546001600160a01b0319166001600160a01b0392909216919091179055565b6000606061058e610594565b91509091565b600154600090806105a757600091505090565b7f00000000000000000000000000000000000000000000000000000000000000008113156105f257507f00000000000000000000000000000000000000000000000000000000000000005b6001546000908161060384836108bb565b90505b818112156106315760008181526020819052604090205461062790846108fa565b9250600101610606565b5061063c8383610867565b935050505090565b60007f00000000000000000000000000000000000000000000000000000000000000006001600160a01b03166398d5fdca6040518163ffffffff1660e01b815260040160206040518083038186803b15801561069f57600080fd5b505afa1580156106b3573d6000803e3d6000fd5b505050506040513d601f19601f820116820180604052508101906106d7919061093b565b90506106e28161077f565b60018054600090815260208190526040902091909155547f000000000000000000000000000000000000000000000000000000000000000013610763576000807f000000000000000000000000000000000000000000000000000000000000000060015461075091906108bb565b8152602001908152602001600020600090555b6001805490600061077383610954565b90915550504260035550565b60006103237f000000000000000000000000000000000000000000000000000000000000000083610974565b6000602082840312156107bd57600080fd5b5035919050565b6000602082840312156107d657600080fd5b81356001600160a01b03811681146107ed57600080fd5b9392505050565b82815260006020604081840152835180604085015260005b818110156108285785810183015185820160600152820161080c565b8181111561083a576000606083870101525b50601f01601f191692909201606001949350505050565b634e487b7160e01b600052601160045260246000fd5b60008261088457634e487b7160e01b600052601260045260246000fd5b600160ff1b82146000198414161561089e5761089e610851565b500590565b600082198211156108b6576108b6610851565b500190565b60008083128015600160ff1b8501841216156108d9576108d9610851565b6001600160ff1b03840183138116156108f4576108f4610851565b50500390565b600080821280156001600160ff1b038490038513161561091c5761091c610851565b600160ff1b839003841281161561093557610935610851565b50500190565b60006020828403121561094d57600080fd5b5051919050565b60006001600160ff1b0382141561096d5761096d610851565b5060010190565b60006001600160ff1b038184138284138082168684048611161561099a5761099a610851565b600160ff1b60008712828116878305891216156109b9576109b9610851565b600087129250878205871284841616156109d5576109d5610851565b878505871281841616156109eb576109eb610851565b50505092909302939250505056fea2646970667358221220dd4a7aed6b1c04472224c459dea28cb31c7a39fcfe8dcb9c94972a79ee774e6564736f6c63430008090033",
  "devdoc": {
    "kind": "dev",
    "methods": {
      "fromWad(int256)": {
        "details": "This is a no-op for `SMAOracle`",
        "params": {
          "wad": "wad maths value"
        },
        "returns": {
          "_0": "Raw (signed) integer"
        }
      },
      "getPrice()": {
        "details": "Recomputes SMA across sample size"
      },
      "getPriceAndMetadata()": {
        "details": "Required by the `IOracleWrapper` interface. The interface leaves          the metadata as implementation-defined. For the SMA wrapper, there          is no clear use case for additional data, so it's left blank"
      },
      "poll()": {
        "details": "Throws if called within an update interval since last being calledEssentially wraps `update()`",
        "returns": {
          "_0": "Latest SMA price"
        }
      },
      "setGovernance(address)": {
        "details": "Only callable by (existing) governance",
        "params": {
          "_governance": "Address of the new governance"
        }
      },
      "setPoolKeeper(address)": {
        "details": "Only callable by governance",
        "params": {
          "_poolKeeper": "Address of the new contract"
        }
      }
    },
    "stateVariables": {
      "prices": {
        "details": "Only the most recent `numPeriods` prices are stored. The rest are deleted, which will result in a zero value for prices with index less than `periodCount - numPrices`."
      }
    },
    "version": 1
  },
  "userdoc": {
    "kind": "user",
    "methods": {
      "fromWad(int256)": {
        "notice": "Converts `wad` to a raw integer"
      },
      "getPrice()": {
        "notice": "Retrieves the current SMA price"
      },
      "getPriceAndMetadata()": {
        "notice": "Returns the current SMA price and an empty bytes array"
      },
      "lastUpdate()": {
        "notice": "Time of last successful price update"
      },
      "numPeriods()": {
        "notice": "Number of desired sampling periods to use -- this will differ from the actual number of periods used until the SMAOracle ramps up."
      },
      "oracle()": {
        "notice": "Price feed to use for SMA"
      },
      "periodCount()": {
        "notice": "the total number of periods that have occurred"
      },
      "poll()": {
        "notice": "Updates the SMA wrapper by retrieving a new price from the          associated price observer contract (provided it's not too early)"
      },
      "prices(int256)": {
        "notice": "the stored spot prices by their period number"
      },
      "setGovernance(address)": {
        "notice": "Changes the address of the associated governance"
      },
      "setPoolKeeper(address)": {
        "notice": "Changes the address of the associated `PoolKeeper` contract"
      },
      "updateInterval()": {
        "notice": "Duration between price updates in seconds"
      }
    },
    "notice": "Applies a simple moving average (SMA) smoothing function to the spot          price of an underlying oracle.",
    "version": 1
  },
  "storageLayout": {
    "storage": [
      {
        "astId": 14442,
        "contract": "contracts/implementation/SMAOracle.sol:SMAOracle",
        "label": "prices",
        "offset": 0,
        "slot": "0",
        "type": "t_mapping(t_int256,t_int256)"
      },
      {
        "astId": 14445,
        "contract": "contracts/implementation/SMAOracle.sol:SMAOracle",
        "label": "periodCount",
        "offset": 0,
        "slot": "1",
        "type": "t_int256"
      },
      {
        "astId": 14454,
        "contract": "contracts/implementation/SMAOracle.sol:SMAOracle",
        "label": "governance",
        "offset": 0,
        "slot": "2",
        "type": "t_address"
      },
      {
        "astId": 14463,
        "contract": "contracts/implementation/SMAOracle.sol:SMAOracle",
        "label": "lastUpdate",
        "offset": 0,
        "slot": "3",
        "type": "t_uint256"
      },
      {
        "astId": 14474,
        "contract": "contracts/implementation/SMAOracle.sol:SMAOracle",
        "label": "poolKeeper",
        "offset": 0,
        "slot": "4",
        "type": "t_address"
      }
    ],
    "types": {
      "t_address": {
        "encoding": "inplace",
        "label": "address",
        "numberOfBytes": "20"
      },
      "t_int256": {
        "encoding": "inplace",
        "label": "int256",
        "numberOfBytes": "32"
      },
      "t_mapping(t_int256,t_int256)": {
        "encoding": "mapping",
        "key": "t_int256",
        "label": "mapping(int256 => int256)",
        "numberOfBytes": "32",
        "value": "t_int256"
      },
      "t_uint256": {
        "encoding": "inplace",
        "label": "uint256",
        "numberOfBytes": "32"
      }
    }
  }
}