{
  "address": "0x4Ccb6F6a89E42E11e7Ff05eA83D755F59DD7eF9A",
  "abi": [
    {
      "inputs": [],
      "name": "MAX_DECIMALS",
      "outputs": [
        {
          "internalType": "uint256",
          "name": "",
          "type": "uint256"
        }
      ],
      "stateMutability": "view",
      "type": "function"
    },
    {
      "inputs": [],
      "name": "ONE",
      "outputs": [
        {
          "internalType": "bytes16",
          "name": "",
          "type": "bytes16"
        }
      ],
      "stateMutability": "view",
      "type": "function"
    },
    {
      "inputs": [],
      "name": "WAD_PRECISION",
      "outputs": [
        {
          "internalType": "uint256",
          "name": "",
          "type": "uint256"
        }
      ],
      "stateMutability": "view",
      "type": "function"
    },
    {
      "inputs": [
        {
          "internalType": "bytes16",
          "name": "x",
          "type": "bytes16"
        },
        {
          "internalType": "bytes16",
          "name": "y",
          "type": "bytes16"
        }
      ],
      "name": "addBytes",
      "outputs": [
        {
          "internalType": "bytes16",
          "name": "",
          "type": "bytes16"
        }
      ],
      "stateMutability": "pure",
      "type": "function"
    },
    {
      "inputs": [
        {
          "internalType": "uint256",
          "name": "timestamp",
          "type": "uint256"
        },
        {
          "internalType": "uint256",
          "name": "lastPriceTimestamp",
          "type": "uint256"
        },
        {
          "internalType": "uint256",
          "name": "frontRunningInterval",
          "type": "uint256"
        },
        {
          "internalType": "uint256",
          "name": "updateInterval",
          "type": "uint256"
        },
        {
          "internalType": "uint256",
          "name": "currentUpdateIntervalId",
          "type": "uint256"
        }
      ],
      "name": "appropriateUpdateIntervalId",
      "outputs": [
        {
          "internalType": "uint256",
          "name": "",
          "type": "uint256"
        }
      ],
      "stateMutability": "pure",
      "type": "function"
    },
    {
      "inputs": [
        {
          "internalType": "uint256",
          "name": "longBalance",
          "type": "uint256"
        },
        {
          "internalType": "uint256",
          "name": "shortBalance",
          "type": "uint256"
        },
        {
          "internalType": "bytes16",
          "name": "leverageAmount",
          "type": "bytes16"
        },
        {
          "internalType": "int256",
          "name": "oldPrice",
          "type": "int256"
        },
        {
          "internalType": "int256",
          "name": "newPrice",
          "type": "int256"
        },
        {
          "internalType": "bytes16",
          "name": "fee",
          "type": "bytes16"
        }
      ],
      "name": "calculateValueTransfer",
      "outputs": [
        {
          "internalType": "uint256",
          "name": "",
          "type": "uint256"
        },
        {
          "internalType": "uint256",
          "name": "",
          "type": "uint256"
        },
        {
          "internalType": "uint256",
          "name": "",
          "type": "uint256"
        },
        {
          "internalType": "uint256",
          "name": "",
          "type": "uint256"
        }
      ],
      "stateMutability": "pure",
      "type": "function"
    },
    {
      "inputs": [
        {
          "internalType": "bytes16",
          "name": "x",
          "type": "bytes16"
        },
        {
          "internalType": "bytes16",
          "name": "y",
          "type": "bytes16"
        }
      ],
      "name": "compareDecimals",
      "outputs": [
        {
          "internalType": "int8",
          "name": "",
          "type": "int8"
        }
      ],
      "stateMutability": "pure",
      "type": "function"
    },
    {
      "inputs": [
        {
          "internalType": "bytes16",
          "name": "ratio",
          "type": "bytes16"
        }
      ],
      "name": "convertDecimalToUInt",
      "outputs": [
        {
          "internalType": "uint256",
          "name": "",
          "type": "uint256"
        }
      ],
      "stateMutability": "pure",
      "type": "function"
    },
    {
      "inputs": [
        {
          "internalType": "uint256",
          "name": "amount",
          "type": "uint256"
        }
      ],
      "name": "convertUIntToDecimal",
      "outputs": [
        {
          "internalType": "bytes16",
          "name": "",
          "type": "bytes16"
        }
      ],
      "stateMutability": "pure",
      "type": "function"
    },
    {
      "inputs": [
        {
          "internalType": "int256",
          "name": "a",
          "type": "int256"
        },
        {
          "internalType": "int256",
          "name": "b",
          "type": "int256"
        }
      ],
      "name": "divInt",
      "outputs": [
        {
          "internalType": "bytes16",
          "name": "",
          "type": "bytes16"
        }
      ],
      "stateMutability": "pure",
      "type": "function"
    },
    {
      "inputs": [
        {
          "internalType": "uint256",
          "name": "_wadValue",
          "type": "uint256"
        },
        {
          "internalType": "uint256",
          "name": "_decimals",
          "type": "uint256"
        }
      ],
      "name": "fromWad",
      "outputs": [
        {
          "internalType": "uint256",
          "name": "",
          "type": "uint256"
        }
      ],
      "stateMutability": "pure",
      "type": "function"
    },
    {
      "inputs": [
        {
          "internalType": "uint256",
          "name": "reward",
          "type": "uint256"
        },
        {
          "internalType": "uint256",
          "name": "shortBalance",
          "type": "uint256"
        },
        {
          "internalType": "uint256",
          "name": "longBalance",
          "type": "uint256"
        }
      ],
      "name": "getBalancesAfterFees",
      "outputs": [
        {
          "internalType": "uint256",
          "name": "",
          "type": "uint256"
        },
        {
          "internalType": "uint256",
          "name": "",
          "type": "uint256"
        }
      ],
      "stateMutability": "pure",
      "type": "function"
    },
    {
      "inputs": [
        {
          "internalType": "bytes16",
          "name": "price",
          "type": "bytes16"
        },
        {
          "internalType": "uint256",
          "name": "amount",
          "type": "uint256"
        }
      ],
      "name": "getBurn",
      "outputs": [
        {
          "internalType": "uint256",
          "name": "",
          "type": "uint256"
        }
      ],
      "stateMutability": "pure",
      "type": "function"
    },
    {
      "inputs": [
        {
          "internalType": "bytes16",
          "name": "lossMultiplier",
          "type": "bytes16"
        },
        {
          "internalType": "uint256",
          "name": "balance",
          "type": "uint256"
        }
      ],
      "name": "getLossAmount",
      "outputs": [
        {
          "internalType": "uint256",
          "name": "",
          "type": "uint256"
        }
      ],
      "stateMutability": "pure",
      "type": "function"
    },
    {
      "inputs": [
        {
          "internalType": "bytes16",
          "name": "ratio",
          "type": "bytes16"
        },
        {
          "internalType": "int8",
          "name": "direction",
          "type": "int8"
        },
        {
          "internalType": "bytes16",
          "name": "leverage",
          "type": "bytes16"
        }
      ],
      "name": "getLossMultiplier",
      "outputs": [
        {
          "internalType": "bytes16",
          "name": "",
          "type": "bytes16"
        }
      ],
      "stateMutability": "pure",
      "type": "function"
    },
    {
      "inputs": [
        {
          "internalType": "bytes16",
          "name": "price",
          "type": "bytes16"
        },
        {
          "internalType": "uint256",
          "name": "amount",
          "type": "uint256"
        }
      ],
      "name": "getMint",
      "outputs": [
        {
          "internalType": "uint256",
          "name": "",
          "type": "uint256"
        }
      ],
      "stateMutability": "pure",
      "type": "function"
    },
    {
      "inputs": [
        {
          "internalType": "uint256",
          "name": "tokenSupply",
          "type": "uint256"
        },
        {
          "internalType": "uint256",
          "name": "amountIn",
          "type": "uint256"
        },
        {
          "internalType": "uint256",
          "name": "balance",
          "type": "uint256"
        },
        {
          "internalType": "uint256",
          "name": "pendingBurnPoolTokens",
          "type": "uint256"
        }
      ],
      "name": "getMintAmount",
      "outputs": [
        {
          "internalType": "uint256",
          "name": "",
          "type": "uint256"
        }
      ],
      "stateMutability": "pure",
      "type": "function"
    },
    {
      "inputs": [
        {
          "internalType": "uint256",
          "name": "sideBalance",
          "type": "uint256"
        },
        {
          "internalType": "uint256",
          "name": "tokenSupply",
          "type": "uint256"
        }
      ],
      "name": "getPrice",
      "outputs": [
        {
          "internalType": "bytes16",
          "name": "",
          "type": "bytes16"
        }
      ],
      "stateMutability": "pure",
      "type": "function"
    },
    {
      "inputs": [
        {
          "internalType": "uint256",
          "name": "_numerator",
          "type": "uint256"
        },
        {
          "internalType": "uint256",
          "name": "_denominator",
          "type": "uint256"
        }
      ],
      "name": "getRatio",
      "outputs": [
        {
          "internalType": "bytes16",
          "name": "",
          "type": "bytes16"
        }
      ],
      "stateMutability": "pure",
      "type": "function"
    },
    {
      "inputs": [
        {
          "components": [
            {
              "internalType": "bytes16",
              "name": "longPrice",
              "type": "bytes16"
            },
            {
              "internalType": "bytes16",
              "name": "shortPrice",
              "type": "bytes16"
            },
            {
              "internalType": "bytes16",
              "name": "mintingFeeRate",
              "type": "bytes16"
            },
            {
              "internalType": "uint256",
              "name": "currentUpdateIntervalId",
              "type": "uint256"
            },
            {
              "internalType": "uint256",
              "name": "updateIntervalId",
              "type": "uint256"
            },
            {
              "internalType": "uint256",
              "name": "longMintSettlement",
              "type": "uint256"
            },
            {
              "internalType": "uint256",
              "name": "longBurnPoolTokens",
              "type": "uint256"
            },
            {
              "internalType": "uint256",
              "name": "shortMintSettlement",
              "type": "uint256"
            },
            {
              "internalType": "uint256",
              "name": "shortBurnPoolTokens",
              "type": "uint256"
            },
            {
              "internalType": "uint256",
              "name": "longBurnShortMintPoolTokens",
              "type": "uint256"
            },
            {
              "internalType": "uint256",
              "name": "shortBurnLongMintPoolTokens",
              "type": "uint256"
            },
            {
              "internalType": "bytes16",
              "name": "burnFee",
              "type": "bytes16"
            }
          ],
          "internalType": "struct PoolSwapLibrary.UpdateData",
          "name": "data",
          "type": "tuple"
        }
      ],
      "name": "getUpdatedAggregateBalance",
      "outputs": [
        {
          "components": [
            {
              "internalType": "uint256",
              "name": "_newLongTokens",
              "type": "uint256"
            },
            {
              "internalType": "uint256",
              "name": "_newShortTokens",
              "type": "uint256"
            },
            {
              "internalType": "uint256",
              "name": "_longSettlementFee",
              "type": "uint256"
            },
            {
              "internalType": "uint256",
              "name": "_shortSettlementFee",
              "type": "uint256"
            },
            {
              "internalType": "uint256",
              "name": "_newSettlementTokens",
              "type": "uint256"
            }
          ],
          "internalType": "struct PoolSwapLibrary.UpdateResult",
          "name": "",
          "type": "tuple"
        }
      ],
      "stateMutability": "pure",
      "type": "function"
    },
    {
      "inputs": [
        {
          "internalType": "uint256",
          "name": "tokenSupply",
          "type": "uint256"
        },
        {
          "internalType": "uint256",
          "name": "amountIn",
          "type": "uint256"
        },
        {
          "internalType": "uint256",
          "name": "balance",
          "type": "uint256"
        },
        {
          "internalType": "uint256",
          "name": "pendingBurnPoolTokens",
          "type": "uint256"
        }
      ],
      "name": "getWithdrawAmountOnBurn",
      "outputs": [
        {
          "internalType": "uint256",
          "name": "",
          "type": "uint256"
        }
      ],
      "stateMutability": "pure",
      "type": "function"
    },
    {
      "inputs": [
        {
          "internalType": "uint256",
          "name": "subjectTime",
          "type": "uint256"
        },
        {
          "internalType": "uint256",
          "name": "lastPriceTimestamp",
          "type": "uint256"
        },
        {
          "internalType": "uint256",
          "name": "updateInterval",
          "type": "uint256"
        },
        {
          "internalType": "uint256",
          "name": "frontRunningInterval",
          "type": "uint256"
        }
      ],
      "name": "isBeforeFrontRunningInterval",
      "outputs": [
        {
          "internalType": "bool",
          "name": "",
          "type": "bool"
        }
      ],
      "stateMutability": "pure",
      "type": "function"
    },
    {
      "inputs": [
        {
          "internalType": "bytes16",
          "name": "feeRate",
          "type": "bytes16"
        },
        {
          "internalType": "uint256",
          "name": "amount",
          "type": "uint256"
        }
      ],
      "name": "mintingOrBurningFee",
      "outputs": [
        {
          "internalType": "uint256",
          "name": "",
          "type": "uint256"
        }
      ],
      "stateMutability": "pure",
      "type": "function"
    },
    {
      "inputs": [
        {
          "internalType": "uint256",
          "name": "number",
          "type": "uint256"
        },
        {
          "internalType": "uint256",
          "name": "numerator",
          "type": "uint256"
        },
        {
          "internalType": "uint256",
          "name": "denominator",
          "type": "uint256"
        }
      ],
      "name": "mulFraction",
      "outputs": [
        {
          "internalType": "uint256",
          "name": "",
          "type": "uint256"
        }
      ],
      "stateMutability": "pure",
      "type": "function"
    },
    {
      "inputs": [
        {
          "internalType": "bytes16",
          "name": "x",
          "type": "bytes16"
        },
        {
          "internalType": "bytes16",
          "name": "y",
          "type": "bytes16"
        }
      ],
      "name": "multiplyBytes",
      "outputs": [
        {
          "internalType": "bytes16",
          "name": "",
          "type": "bytes16"
        }
      ],
      "stateMutability": "pure",
      "type": "function"
    },
    {
      "inputs": [
        {
          "internalType": "bytes16",
          "name": "a",
          "type": "bytes16"
        },
        {
          "internalType": "uint256",
          "name": "b",
          "type": "uint256"
        }
      ],
      "name": "multiplyDecimalByUInt",
      "outputs": [
        {
          "internalType": "bytes16",
          "name": "",
          "type": "bytes16"
        }
      ],
      "stateMutability": "pure",
      "type": "function"
    },
    {
      "inputs": [
        {
          "internalType": "uint256",
          "name": "amount",
          "type": "uint256"
        },
        {
          "internalType": "bytes16",
          "name": "burnPrice",
          "type": "bytes16"
        },
        {
          "internalType": "bytes16",
          "name": "burningFee",
          "type": "bytes16"
        },
        {
          "internalType": "bytes16",
          "name": "mintingFee",
          "type": "bytes16"
        }
      ],
      "name": "processBurnInstantMintCommit",
      "outputs": [
        {
          "internalType": "uint256",
          "name": "",
          "type": "uint256"
        },
        {
          "internalType": "uint256",
          "name": "",
          "type": "uint256"
        },
        {
          "internalType": "uint256",
          "name": "",
          "type": "uint256"
        }
      ],
      "stateMutability": "pure",
      "type": "function"
    },
    {
      "inputs": [
        {
          "internalType": "bytes16",
          "name": "x",
          "type": "bytes16"
        },
        {
          "internalType": "bytes16",
          "name": "y",
          "type": "bytes16"
        }
      ],
      "name": "subtractBytes",
      "outputs": [
        {
          "internalType": "bytes16",
          "name": "",
          "type": "bytes16"
        }
      ],
      "stateMutability": "pure",
      "type": "function"
    }
  ],
  "transactionHash": "0xf0a885a497310a527771b889e3d58a637486f590592fac580d6f34c906ccde6d",
  "args": [],
  "solcInputHash": "c531ec4aa0c6e728e159c9fdfa70dead",
  "bytecode": "0x61362861003a600b82828239805160001a60731461002d57634e487b7160e01b600052600060045260246000fd5b30600052607381538281f3fe73000000000000000000000000000000000000000030146080604052600436106101ce5760003560e01c8063aeb64d7d11610103578063dc35bc13116100a1578063e45639451161007b578063e456394514610466578063fc31158114610479578063fea3de331461048c578063ff9afe871461049f57600080fd5b8063dc35bc1314610418578063debb52df14610440578063dfdbe4da1461045357600080fd5b8063bf36f0e9116100dd578063bf36f0e9146103d3578063c2ee3a08146103e6578063c3ff8091146103f2578063cff700011461040557600080fd5b8063aeb64d7d1461037a578063b6b2f9f61461038d578063b89bf2ef146103a057600080fd5b8063664808a8116101705780639eb17fa31161014a5780639eb17fa3146102ec578063a818c0d214610341578063aacf0ecb14610354578063ab41556f1461036757600080fd5b8063664808a81461028c57806381a799db1461029b578063839dff3d146102be57600080fd5b8063202f1257116101ac578063202f125714610240578063422051e71461025357806345e7ef9b146102665780635cf4ee911461027957600080fd5b80630417cf8e146101d35780630e8418dd146101ee5780631842c9d81461021a575b600080fd5b6101db601281565b6040519081526020015b60405180910390f35b6102016101fc3660046131fb565b6104b2565b6040516001600160801b031990911681526020016101e5565b61022d6102283660046131fb565b6104c7565b60405160009190910b81526020016101e5565b61020161024e36600461322e565b6104d3565b610201610261366004613250565b6104ef565b6102016102743660046131fb565b610503565b61020161028736600461322e565b61050f565b6101db670de0b6b3a764000081565b6102ae6102a936600461327a565b610537565b60405190151581526020016101e5565b6102d16102cc3660046132ac565b61055b565b604080519384526020840192909252908201526060016101e5565b6102ff6102fa3660046132f9565b6105ae565b6040516101e59190600060a082019050825182526020830151602083015260408301516040830152606083015160608301526080830151608083015292915050565b6101db61034f366004613250565b6108ed565b6101db610362366004613250565b610912565b6101db61037536600461327a565b610934565b6101db610388366004613312565b610988565b61020161039b3660046131fb565b610993565b6103b36103ae36600461332d565b61099f565b6040805194855260208501939093529183015260608201526080016101e5565b6101db6103e136600461322e565b610c50565b610201613fff60f01b81565b610201610400366004613385565b610c75565b61020161041336600461322e565b610cb5565b61042b6104263660046133d0565b610cc4565b604080519283526020830191909152016101e5565b6101db61044e36600461327a565b610d1d565b6102016104613660046133fc565b610d5c565b6101db610474366004613250565b610d67565b6101db610487366004613250565b610e1e565b6101db61049a3660046133d0565b610ed0565b6101db6104ad366004613415565b610f1c565b60006104be838361102d565b90505b92915050565b60006104be838361103f565b60006104be6104e184611166565b6104ea84611166565b6111f9565b60006104be836104fe846114b0565b611514565b60006104be8383611514565b6000816105225750613fff60f01b6104c1565b6104be61052e846114b0565b6104ea846114b0565b600084826105458587613466565b61054f919061347e565b1190505b949350505050565b60008060008061056b8789610e1e565b905060006105798783610912565b9050610585818361347e565b915060006105938784610912565b905061059f818461347e565b9a919950975095505050505050565b6105e06040518060a0016040528060008152602001600081526020016000815260200160008152602001600081525090565b60006040518060a00160405280600081526020016000815260200160008152602001600081526020016000815250905082606001358360800135106106255792915050565b600080610140850135156106a95760008061067161014088013561064f60408a0160208b01613312565b6106616101808b016101608c01613312565b6102cc60608c0160408d01613312565b6060880180519397509194509250839161068c908390613466565b9052506040850180518291906106a3908390613466565b90525050505b61012085013515610754576106cf6106c46020870187613312565b866101200135610e1e565b905060006106ee6106e861018088016101608901613312565b83610912565b90506106fa818361347e565b915060006107176107116060890160408a01613312565b84610912565b9050610723818461347e565b925081856040018181516107379190613466565b90525060608501805182919061074e908390613466565b90525050505b60008560a0013511806107675750600082115b1561079d5761078a61077c6020870187613312565b6104748460a0890135613466565b83518490610799908390613466565b9052505b60008560e0013511806107b05750600081115b156107eb576107d66107c86040870160208801613312565b6104748360e0890135613466565b836020018181516107e79190613466565b9052505b60c0850135156108655760006108116108076020880188613312565b8760c00135610e1e565b9050600061082a6106e861018089016101608a01613312565b9050808560400181815161083e9190613466565b90525061084b818361347e565b9150818560800181815161085f9190613466565b90525050505b610100850135156108e45760006108906108856040880160208901613312565b876101000135610e1e565b905060006108a96106e861018089016101608a01613312565b905080856060018181516108bd9190613466565b9052506108ca818361347e565b915081856080018181516108de9190613466565b90525050505b50909392505050565b60006104be61090d610904613fff60f01b8661102d565b6104fe856114b0565b61176f565b6000670de0b6b3a764000061092a61090d85856104ef565b6104be91906134ab565b600082158061094a57506109488286613466565b155b80610953575083155b1561095f575082610553565b828461096b8488613466565b61097591906134cd565b61097f91906134ab565b95945050505050565b60006104c18261176f565b60006104be83836117f2565b60008060008060006040518060c001604052808981526020018881526020018c81526020018b81526020018a6001600160801b0319168152602001876001600160801b03191681525090506000670de0b6b3a7640000610a0a6103888460a0015185604001516104ef565b610a1491906134ab565b90506000670de0b6b3a7640000610a366103888560a0015186606001516104ef565b610a4091906134ab565b90508083606001818151610a54919061347e565b905250604083018051839190610a6b90839061347e565b90525060408301516060840151600091610a8491613466565b90508a8a12158015610a9a575060008460600151115b15610b22576000610ab3856000015186602001516104d3565b90506000610ac18e83611bb2565b9050610adc61090d610ad688606001516114b0565b83611514565b86604001818151610aed9190613466565b9052506060860151610b159061090d90610b06906114b0565b6104fe613fff60f01b8561102d565b606087015250610ba39050565b8a8a128015610b35575060008460400151115b15610ba3576000610b4e856020015186600001516104d3565b90506000610b5c8e83611bb2565b9050610b7161090d610ad688604001516114b0565b86606001818151610b829190613466565b9052506040860151610b9b9061090d90610b06906114b0565b604087015250505b83606001518460400151610bb79190613466565b811115610c30578a8a1315610bfd5783606001518460400151610bda9190613466565b610be4908261347e565b84604001818151610bf59190613466565b905250610c30565b83606001518460400151610c119190613466565b610c1b908261347e565b84606001818151610c2c9190613466565b9052505b506040830151606090930151929d929c50909a5098509650505050505050565b600080610c5e83601261347e565b610c6990600a6135d0565b905061055381856134ab565b6000610cab610ca6836104fe60008760000b12610ca057610c9b613fff60f01b896111f9565b611c1e565b87611c1e565b611dd1565b90505b9392505050565b600081610522575060006104c1565b60008080610cd6856104138682613466565b90506000610ce761038883896104ef565b90506000610cf5828861347e565b90506000610d03838a61347e565b610d0d908861347e565b9199919850909650505050505050565b6000821580610d335750610d318286613466565b155b80610d3c575083155b15610d48575082610553565b610d528286613466565b61097585856134cd565b60006104c1826114b0565b60006001600160801b03198316610db25760405162461bcd60e51b815260206004820152600a60248201526907072696365203d3d20360b41b60448201526064015b60405180910390fd5b6001600160801b03198316600160ff1b1415610e095760405162461bcd60e51b81526020600482015260166024820152757072696365203d3d206e65676174697665207a65726f60501b6044820152606401610da9565b6104be61090d610e18846114b0565b856111f9565b60006001600160801b03198316610e645760405162461bcd60e51b815260206004820152600a60248201526907072696365203d3d20360b41b6044820152606401610da9565b6001600160801b03198316600160ff1b1415610ebb5760405162461bcd60e51b81526020600482015260166024820152757072696365203d3d206e65676174697665207a65726f60501b6044820152606401610da9565b6104be61090d610eca846114b0565b85611514565b600081610edf57506000610cae565b6000610ef6610eed866114b0565b6104fe866114b0565b90506000610f07826104ea866114b0565b9050610f1281610988565b9695505050505050565b600085851115610f665760405162461bcd60e51b81526020600482015260156024820152741d1a5b595cdd185b5c081a5b881d1a19481c185cdd605a1b6044820152606401610da9565b828411610ffc57610f7986868587610537565b15610f8557508061097f565b600083610f92878961347e565b610f9c91906134ab565b905060008585610fad846001613466565b610fb791906134cd565b610fc19089613466565b610fcb919061347e565b9050808810610ff257610fde8285613466565b610fe9906001613466565b9250505061097f565b610fe98285613466565b60006110088588613466565b9050600084611017888461347e565b61102191906134ab565b9050610fe98185613466565b60006104be83600160ff1b84186117f2565b600060016001607f1b03608084901c16617fff60701b81111561106157600080fd5b60016001607f1b03608084901c16617fff60701b81111561108157600080fd5b6001600160801b03198581169085161415806110aa5750617fff60701b826001600160801b0316105b6110b357600080fd5b6001600160801b031985811690851614156110d3576000925050506104c1565b6001607f1b608086811c82118015929187901c91909110159061112557801561111657826001600160801b0316846001600160801b03161161111657600161111a565b6000195b9450505050506104c1565b80156111385760019450505050506104c1565b826001600160801b0316846001600160801b0316116111595760001961111a565b60019450505050506104c1565b60008161117557506000919050565b60008083136111875782600003611189565b825b9050600061119682613123565b905060708110156111af578060700382901b91506111c2565b60708111156111c2576070810382901c91505b6001600160701b03909116613fff820160701b179060008412156111ea576001607f1b821791505b5060801b92915050565b919050565b6000617fff60f084811c8216919084901c81169082141561123f5780617fff141561122e575061ffff60ef1b91506104c19050565b505050600160ff1b811682186104c1565b80617fff1415611283576dffffffffffffffffffffffffffff60801b841615611272575061ffff60ef1b91506104c19050565b505050808218600160ff1b166104c1565b600160801b600160ff1b0384166112cd57600160801b600160ff1b0385166112b5575061ffff60ef1b91506104c19050565b505050808218600160ff1b16617fff60f01b176104c1565b6001600160701b03608085901c16816112e957600191506112f0565b600160701b175b6001600160701b03608087901c168361132f57801561132a57600061131482613123565b6001955060e20393840160711901939190911b90505b611339565b600160701b1760721b5b81818161134857611348613495565b0490508061137457600160ff1b8787181661136457600061111a565b600160ff1b9450505050506104c1565b6001606c1b811015611388576113886135dc565b6000600160731b8210156113c757600160721b8210156113bc57600160711b8210156113b55760706113bf565b60716113bf565b60725b60ff166113d0565b6113d082613123565b9050836140710181860111156113ee57617fff945060009150611481565b83818601613ffc011015611409576000945060009150611481565b83818601613f8c011015611456578385613ffc011115611434578385613ffc010382901b915061144d565b8385613ffc01101561144d57613ffc8585030382901c91505b60009450611481565b6070811115611469576070810382901c91505b6001600160701b038216915083818601613f8d010394505b81607086901b888a186001607f1b60801b1660801c6001600160801b0316171760801b955050505050506104c1565b6000816114bf57506000919050565b8160006114cb82613123565b905060708110156114e4578060700382901b91506114f7565b60708111156114f7576070810382901c91505b613fff0160701b6001600160701b03919091161760801b92915050565b6000617fff60f084811c8216919084901c8116908214156115b35780617fff1415611592576001600160801b0319858116908516141561155f57505050600160ff1b811682186104c1565b600160ff1b6001600160801b0319868618161415611582575050508181176104c1565b5061ffff60ef1b91506104c19050565b600160801b600160ff1b03841661122e575061ffff60ef1b91506104c19050565b80617fff14156115ef57600160801b600160ff1b0385166115de575061ffff60ef1b91506104c19050565b505050600160ff1b821681186104c1565b6001600160701b03608086901c168261160b5760019250611612565b600160701b175b6001600160701b03608086901c168261162e5760019250611635565b600160701b175b908102908161165257600160ff1b8787181661136457600061111a565b928201926000600160e11b83101561168557600160e01b83101561167e5761167983613123565b611688565b60e0611688565b60e15b905061407081860110156116a3576000945060009250611740565b6140e081860110156116e6576140708510156116c857846140700383901c92506116dd565b6140708511156116dd57614070850383901b92505b60009450611740565b61c0dd818601111561170057617fff945060009250611740565b6070811115611717576070810383901c925061172a565b607081101561172a578060700383901b92505b6001600160701b03831692506140df8186010394505b82607086901b888a186001607f1b60801b1660801c6001600160801b0316171760801b955050505050506104c1565b6000617fff60f083901c16613fff81101561178d5750600092915050565b6001607f1b608084901c106117a157600080fd5b6140fe8111156117b057600080fd5b600160701b6001600160701b03608085901c161761406f8210156117da5761406f8290031c610cae565b61406f821115610cae5761406e1982011b9392505050565b6000617fff60f084811c8216919084901c8116908214156118405780617fff1415611836576001600160801b031985811690851614156115825784925050506104c1565b84925050506104c1565b80617fff14156118545783925050506104c1565b6001607f1b608086901c90811015906001600160701b03168361187a5760019350611881565b600160701b175b6001607f1b608087901c90811015906001600160701b0316846118a757600194506118ae565b600160701b175b826118de576001600160801b03198816600160ff1b146118ce57876118d1565b60005b96505050505050506104c1565b806118fe576001600160801b03198916600160ff1b146118ce57886118d1565b8486038415158315151415611a0957607081131561192557899750505050505050506104c1565b60008113156119375790811c90611966565b606f1981121561195057889750505050505050506104c1565b6000811215611966578060000384901c93508596505b92810192600160711b8410611981576001968701969390931c925b86617fff14156119b3578461199b57617fff60f01b6119a5565b6001600160f01b03195b9750505050505050506104c1565b600160701b8410156119c857600096506119d5565b6001600160701b03841693505b83607088901b866119e75760006119ed565b6001607f1b5b6001600160801b0316171760801b9750505050505050506104c1565b6000811315611a2457600184901b9350600187039650611a3b565b6000811215611a3b57600182901b91506001860396505b6070811315611a4d5760019150611a9a565b6001811315611a6a576001810360018303901c6001019150611a9a565b606f19811215611a7d5760019350611a9a565b600019811215611a9a576001816000030360018503901c60010193505b818410611aab578184039350611ab4565b83820393508294505b83611aca5750600096506104c195505050505050565b6000611ad585613123565b90508060711415611afb57600185901c6001600160701b03169450600188019750611b4a565b6070811015611b3d57607081900380891115611b2a578086901b6001600160701b031695508089039850611b37565b600098600019019590951b945b50611b4a565b6001600160701b03851694505b87617fff1415611b7d5785611b6457617fff60f01b611b6e565b6001600160f01b03195b985050505050505050506104c1565b84607089901b87611b8f576000611b95565b6001607f1b5b6001600160801b0316171760801b985050505050505050506104c1565b600080611bc3610eca600119611166565b9050611bd8816104fe613fff60f01b8661102d565b9050611bf1613fff60f01b611bec836131c1565b6117f2565b90506000611c04613fff60f01b806117f2565b905061097f611c1382846111f9565b613fff60f01b61102d565b60006001607f1b608083901c1115611c3c575061ffff60ef1b919050565b613fff60f01b6001600160801b031983161415611c5b57506000919050565b617fff60f083901c811690811415611c74575090919050565b6001600160701b03608084901c1681611c905760019150611c97565b600160701b175b80611cad57506001600160f01b03199392505050565b600061406f81613fff8510611cd35750600f9290921b9160009150613ffe198401611d12565b60019250600160701b8410611cf55784613ffe039050600f84901b9350611d12565b6000611d0085613123565b607f8190039590951b9461406d039150505b836001607f1b1415611d49578215611d28576001015b6000611d3382613123565b60700390508082901b9150808303925050611d97565b600083611d57576000611d5a565b60015b60ff1690505b600160701b821015611d955793800260ff81901c607f81019190911c94600019939093019260019290921b9082180190611d60565b505b806001600160701b0316607083901b84611db2576000611db8565b6001607f1b5b6001600160801b0316171760801b979650505050505050565b60006001607f1b608083901c90811190617fff60f085901c8116916001600160701b03169082148015611e0357508015155b15611e17575061ffff60ef1b949350505050565b61400d821115611e3c5782611e3157617fff60f01b61097f565b600095945050505050565b613f7f821015611e555750613fff60f01b949350505050565b81611e635760019150611e6a565b600160701b175b613fef821115611e8057613fee1982011b611e92565b613fef821015611e9257613fef8290031c5b828015611ea3575061203760811b81115b15611eb357506000949350505050565b82158015611ed25750713fffffffffffffffffffffffffffffffffff81115b15611ee65750617fff60f01b949350505050565b6001600160801b0381169060801c838015611f0057508115155b15611f0c579019906001015b6001607f1b82811615611f305770016a09e667f3bcc908b2fb1366ea957d3e0260801c5b6001607e1b831615611f53577001306fe0a31b7152de8d5a46305c85edec0260801c5b6001607d1b831615611f76577001172b83c7d517adcdf7c8c50eb14a791f0260801c5b6001607c1b831615611f995770010b5586cf9890f6298b92b71842a983630260801c5b6001607b1b831615611fbc577001059b0d31585743ae7c548eb68ca417fd0260801c5b6001607a1b831615611fdf57700102c9a3e778060ee6f7caca4f7a29bde80260801c5b600160791b8316156120025770010163da9fb33356d84a66ae336dcdfa3f0260801c5b600160781b83161561202557700100b1afa5abcbed6129ab13ec11dc95430260801c5b600160771b8316156120485770010058c86da1c09ea1ff19d294cf2f679b0260801c5b600160761b83161561206b577001002c605e2e8cec506d21bfc89a23a00f0260801c5b600160751b83161561208e57700100162f3904051fa128bca9c55c31e5df0260801c5b600160741b8316156120b1577001000b175effdc76ba38e31671ca9397250260801c5b600160731b8316156120d457700100058ba01fb9f96d6cacd4b180917c3d0260801c5b600160721b8316156120f75770010002c5cc37da9491d0985c348c68e7b30260801c5b600160711b83161561211a577001000162e525ee054754457d59952920260260801c5b600160701b83161561213d5770010000b17255775c040618bf4a4ade83fc0260801c5b6001606f1b831615612160577001000058b91b5bc9ae2eed81e9b7d4cfab0260801c5b6001606e1b83161561218357700100002c5c89d5ec6ca4d7c8acc017b7c90260801c5b6001606d1b8316156121a65770010000162e43f4f831060e02d839a9d16d0260801c5b6001606c1b8316156121c957700100000b1721bcfc99d9f890ea069117630260801c5b6001606b1b8316156121ec5770010000058b90cf1e6d97f9ca14dbcc16280260801c5b6001606a1b83161561220f577001000002c5c863b73f016468f6bac5ca2b0260801c5b600160691b83161561223257700100000162e430e5a18f6119e3c02282a50260801c5b600160681b831615612255577001000000b1721835514b86e6d96efd1bfe0260801c5b600160671b83161561227857700100000058b90c0b48c6be5df846c5b2ef0260801c5b600160661b83161561229b5770010000002c5c8601cc6b9e94213c72737a0260801c5b600160651b8316156122be577001000000162e42fff037df38aa2b219f060260801c5b600160641b8316156122e15770010000000b17217fba9c739aa5819f44f90260801c5b600160631b831615612304577001000000058b90bfcdee5acd3c1cedc8230260801c5b600160621b83161561232757700100000002c5c85fe31f35a6a30da1be500260801c5b600160611b83161561234a5770010000000162e42ff0999ce3541b9fffcf0260801c5b600160601b83161561236d57700100000000b17217f80f4ef5aadda455540260801c5b6001605f1b8316156123905770010000000058b90bfbf8479bd5a81b51ad0260801c5b6001605e1b8316156123b3577001000000002c5c85fdf84bd62ae30a74cc0260801c5b6001605d1b8316156123d657700100000000162e42fefb2fed257559bdaa0260801c5b6001605c1b8316156123f9577001000000000b17217f7d5a7716bba4a9ae0260801c5b6001605b1b83161561241c57700100000000058b90bfbe9ddbac5e109cce0260801c5b6001605a1b83161561243f5770010000000002c5c85fdf4b15de6f17eb0d0260801c5b600160591b831615612462577001000000000162e42fefa494f1478fde050260801c5b600160581b8316156124855770010000000000b17217f7d20cf927c8e94c0260801c5b600160571b8316156124a8577001000000000058b90bfbe8f71cb4e4b33d0260801c5b600160561b8316156124cb57700100000000002c5c85fdf477b662b269450260801c5b600160551b8316156124ee5770010000000000162e42fefa3ae53369388c0260801c5b600160541b83161561251157700100000000000b17217f7d1d351a389d400260801c5b600160531b8316156125345770010000000000058b90bfbe8e8b2d3d4ede0260801c5b600160521b831615612557577001000000000002c5c85fdf4741bea6e77e0260801c5b600160511b83161561257a57700100000000000162e42fefa39fe95583c20260801c5b600160501b83161561259d577001000000000000b17217f7d1cfb72b45e10260801c5b69800000000000000000008316156125c657700100000000000058b90bfbe8e7cc35c3f00260801c5b69400000000000000000008316156125ef5770010000000000002c5c85fdf473e242ea380260801c5b6920000000000000000000831615612618577001000000000000162e42fefa39f02b772c0260801c5b69100000000000000000008316156126415770010000000000000b17217f7d1cf7d83c1a0260801c5b690800000000000000000083161561266a577001000000000000058b90bfbe8e7bdcbe2e0260801c5b690400000000000000000083161561269357700100000000000002c5c85fdf473dea871f0260801c5b69020000000000000000008316156126bc5770010000000000000162e42fefa39ef44d910260801c5b69010000000000000000008316156126e557700100000000000000b17217f7d1cf79e9490260801c5b6880000000000000000083161561270d5770010000000000000058b90bfbe8e7bce5440260801c5b68400000000000000000831615612735577001000000000000002c5c85fdf473de6eca0260801c5b6820000000000000000083161561275d57700100000000000000162e42fefa39ef366f0260801c5b68100000000000000000831615612785577001000000000000000b17217f7d1cf79afa0260801c5b680800000000000000008316156127ad57700100000000000000058b90bfbe8e7bcd6d0260801c5b680400000000000000008316156127d55770010000000000000002c5c85fdf473de6b20260801c5b680200000000000000008316156127fd577001000000000000000162e42fefa39ef3580260801c5b600160401b8316156128205770010000000000000000b17217f7d1cf79ab0260801c5b678000000000000000831615612847577001000000000000000058b90bfbe8e7bcd50260801c5b67400000000000000083161561286e57700100000000000000002c5c85fdf473de6a0260801c5b6720000000000000008316156128955770010000000000000000162e42fefa39ef340260801c5b6710000000000000008316156128bc57700100000000000000000b17217f7d1cf7990260801c5b6708000000000000008316156128e35770010000000000000000058b90bfbe8e7bcc0260801c5b67040000000000000083161561290a577001000000000000000002c5c85fdf473de50260801c5b67020000000000000083161561293157700100000000000000000162e42fefa39ef20260801c5b670100000000000000831615612958577001000000000000000000b17217f7d1cf780260801c5b668000000000000083161561297e57700100000000000000000058b90bfbe8e7bb0260801c5b66400000000000008316156129a45770010000000000000000002c5c85fdf473dd0260801c5b66200000000000008316156129ca577001000000000000000000162e42fefa39ee0260801c5b66100000000000008316156129f05770010000000000000000000b17217f7d1cf60260801c5b6608000000000000831615612a16577001000000000000000000058b90bfbe8e7a0260801c5b6604000000000000831615612a3c57700100000000000000000002c5c85fdf473c0260801c5b6602000000000000831615612a625770010000000000000000000162e42fefa39d0260801c5b6601000000000000831615612a8857700100000000000000000000b17217f7d1ce0260801c5b65800000000000831615612aad5770010000000000000000000058b90bfbe8e60260801c5b65400000000000831615612ad2577001000000000000000000002c5c85fdf4720260801c5b65200000000000831615612af757700100000000000000000000162e42fefa380260801c5b65100000000000831615612b1c577001000000000000000000000b17217f7d1b0260801c5b65080000000000831615612b4157700100000000000000000000058b90bfbe8d0260801c5b65040000000000831615612b665770010000000000000000000002c5c85fdf460260801c5b65020000000000831615612b8b577001000000000000000000000162e42fefa20260801c5b65010000000000831615612bb05770010000000000000000000000b17217f7d00260801c5b648000000000831615612bd4577001000000000000000000000058b90bfbe70260801c5b644000000000831615612bf857700100000000000000000000002c5c85fdf30260801c5b642000000000831615612c1c5770010000000000000000000000162e42fef90260801c5b641000000000831615612c4057700100000000000000000000000b17217f7c0260801c5b640800000000831615612c645770010000000000000000000000058b90bfbd0260801c5b640400000000831615612c88577001000000000000000000000002c5c85fde0260801c5b640200000000831615612cac57700100000000000000000000000162e42fee0260801c5b640100000000831615612cd0577001000000000000000000000000b17217f60260801c5b6380000000831615612cf357700100000000000000000000000058b90bfa0260801c5b6340000000831615612d165770010000000000000000000000002c5c85fc0260801c5b6320000000831615612d39577001000000000000000000000000162e42fd0260801c5b6310000000831615612d5c5770010000000000000000000000000b17217e0260801c5b6308000000831615612d7f577001000000000000000000000000058b90be0260801c5b6304000000831615612da257700100000000000000000000000002c5c85e0260801c5b6302000000831615612dc55770010000000000000000000000000162e42e0260801c5b6301000000831615612de857700100000000000000000000000000b172160260801c5b62800000831615612e0a5770010000000000000000000000000058b90a0260801c5b62400000831615612e2c577001000000000000000000000000002c5c840260801c5b62200000831615612e4e57700100000000000000000000000000162e410260801c5b62100000831615612e70577001000000000000000000000000000b17200260801c5b62080000831615612e9257700100000000000000000000000000058b8f0260801c5b62040000831615612eb45770010000000000000000000000000002c5c70260801c5b62020000831615612ed6577001000000000000000000000000000162e30260801c5b62010000831615612ef85770010000000000000000000000000000b1710260801c5b618000831615612f19577001000000000000000000000000000058b80260801c5b614000831615612f3a57700100000000000000000000000000002c5b0260801c5b612000831615612f5b5770010000000000000000000000000000162d0260801c5b611000831615612f7c57700100000000000000000000000000000b160260801c5b610800831615612f9d5770010000000000000000000000000000058a0260801c5b610400831615612fbe577001000000000000000000000000000002c40260801c5b610200831615612fdf577001000000000000000000000000000001610260801c5b610100831615613000577001000000000000000000000000000000b00260801c5b6080831615613020577001000000000000000000000000000000570260801c5b60408316156130405770010000000000000000000000000000002b0260801c5b6020831615613060577001000000000000000000000000000000150260801c5b60108316156130805770010000000000000000000000000000000a0260801c5b60088316156130a0577001000000000000000000000000000000040260801c5b60048316156130c0577001000000000000000000000000000000010260801c5b846130e157600f81901c6001600160701b03169050613fff82019150613110565b613ffe821161310657600f81901c6001600160701b0316905081613fff039150613110565b600091613fee19011c5b60709190911b1760801b95945050505050565b600080821161313157600080fd5b6000600160801b831061314657608092831c92015b600160401b831061315957604092831c92015b640100000000831061316d57602092831c92015b62010000831061317f57601092831c92015b610100831061319057600892831c92015b601083106131a057600492831c92015b600483106131b057600292831c92015b600283106104c15760010192915050565b60006104c1610ca6836f1fffb8aa3b295c17f0bbbe87fed0691d60811b611514565b80356001600160801b0319811681146111f457600080fd5b6000806040838503121561320e57600080fd5b613217836131e3565b9150613225602084016131e3565b90509250929050565b6000806040838503121561324157600080fd5b50508035926020909101359150565b6000806040838503121561326357600080fd5b61326c836131e3565b946020939093013593505050565b6000806000806080858703121561329057600080fd5b5050823594602084013594506040840135936060013592509050565b600080600080608085870312156132c257600080fd5b843593506132d2602086016131e3565b92506132e0604086016131e3565b91506132ee606086016131e3565b905092959194509250565b6000610180828403121561330c57600080fd5b50919050565b60006020828403121561332457600080fd5b6104be826131e3565b60008060008060008060c0878903121561334657600080fd5b863595506020870135945061335d604088016131e3565b9350606087013592506080870135915061337960a088016131e3565b90509295509295509295565b60008060006060848603121561339a57600080fd5b6133a3846131e3565b925060208401358060000b81146133b957600080fd5b91506133c7604085016131e3565b90509250925092565b6000806000606084860312156133e557600080fd5b505081359360208301359350604090920135919050565b60006020828403121561340e57600080fd5b5035919050565b600080600080600060a0868803121561342d57600080fd5b505083359560208501359550604085013594606081013594506080013592509050565b634e487b7160e01b600052601160045260246000fd5b6000821982111561347957613479613450565b500190565b60008282101561349057613490613450565b500390565b634e487b7160e01b600052601260045260246000fd5b6000826134c857634e487b7160e01b600052601260045260246000fd5b500490565b60008160001904831182151516156134e7576134e7613450565b500290565b600181815b8085111561352757816000190482111561350d5761350d613450565b8085161561351a57918102915b93841c93908002906134f1565b509250929050565b60008261353e575060016104c1565b8161354b575060006104c1565b8160018114613561576002811461356b57613587565b60019150506104c1565b60ff84111561357c5761357c613450565b50506001821b6104c1565b5060208310610133831016604e8410600b84101617156135aa575081810a6104c1565b6135b483836134ec565b80600019048211156135c8576135c8613450565b029392505050565b60006104be838361352f565b634e487b7160e01b600052600160045260246000fdfea2646970667358221220630701538c5cb1179809d4a2fdea8e55b7b9b6f18dfe8d00e3967676c52d308a64736f6c63430008090033",
  "devdoc": {
    "kind": "dev",
    "methods": {
      "addBytes(bytes16,bytes16)": {
        "params": {
          "x": "The number to be added with `y`",
          "y": "The number to be added with `x`"
        }
      },
      "appropriateUpdateIntervalId(uint256,uint256,uint256,uint256,uint256)": {
        "details": "Note that the timestamp parameter is required to be >= lastPriceTimestamp",
        "params": {
          "currentUpdateIntervalId": "The current update interval's ID",
          "frontRunningInterval": "The frontrunning interval of a pool - The amount of time before an update interval that you must commit to get included in that update",
          "lastPriceTimestamp": "The timestamp of the last price update",
          "timestamp": "Current block.timestamp",
          "updateInterval": "The frequency of a pool's updates"
        },
        "returns": {
          "_0": "The update interval ID in which a commit being made at time timestamp should be included"
        }
      },
      "calculateValueTransfer(uint256,uint256,bytes16,int256,int256,bytes16)": {
        "details": "This function should be called by the LeveragedPoolThe value transfer is calculated using a sigmoid functionThe sigmoid function used is defined as follows:          when newPrice >= oldPrice              losing_pool_multiplier = 2 / (1 + e^(-2 * L * (1 - (newPrice / oldPrice)))) - 1          when newPrice < oldPrice              losing_pool_multiplier = 2 / (1 + e^(-2 * L * (1 - (oldPrice / newPrice)))) - 1          where              e = euler's number              L = leverage              newPrice = the new oracle price              oldPrice = the previous oracle price",
        "params": {
          "fee": "The pool's annualised protocol fee",
          "leverageAmount": "The leverage of the pool",
          "longBalance": "Settlement token balance on the long side of the pool before the price change",
          "newPrice": "The new price",
          "oldPrice": "The previous price",
          "shortBalance": "Settlement token balance on the short side of the pool before the price change"
        },
        "returns": {
          "_0": "Resulting long balance",
          "_1": "Resulting short balance",
          "_2": "Resulting fees taken from long balance",
          "_3": "Resulting fees taken from short balance"
        }
      },
      "compareDecimals(bytes16,bytes16)": {
        "params": {
          "x": "The first number to compare",
          "y": "The second number to compare"
        },
        "returns": {
          "_0": "-1 if x < y, 0 if x = y, or 1 if x > y"
        }
      },
      "convertDecimalToUInt(bytes16)": {
        "params": {
          "ratio": "The value to convert"
        },
        "returns": {
          "_0": "The converted value"
        }
      },
      "convertUIntToDecimal(uint256)": {
        "params": {
          "amount": "The amount to convert"
        },
        "returns": {
          "_0": "The amount as a IEEE754 quadruple precision number"
        }
      },
      "divInt(int256,int256)": {
        "params": {
          "a": "The dividend",
          "b": "The divisor"
        },
        "returns": {
          "_0": "The quotient"
        }
      },
      "fromWad(uint256,uint256)": {
        "params": {
          "_decimals": "Quantity of decimal places to support",
          "_wadValue": "wad number"
        },
        "returns": {
          "_0": "Converted (non-WAD) value"
        }
      },
      "getBalancesAfterFees(uint256,uint256,uint256)": {
        "details": "Assumes shortBalance + longBalance >= reward",
        "params": {
          "longBalance": "Long balance of the pool",
          "reward": "Amount of keeper reward",
          "shortBalance": "Short balance of the pool"
        },
        "returns": {
          "_0": "shortBalanceAfterFees Short balance of the pool after the keeper reward has been paid",
          "_1": "longBalanceAfterFees Long balance of the pool after the keeper reward has been paid"
        }
      },
      "getBurn(bytes16,uint256)": {
        "details": "amount * price, where amount is in PoolToken and price is in USD/PoolTokenThrows if price is zero, or IEEE754 negative zero`getBurn()`",
        "params": {
          "amount": "Amount of pool tokens being used to burn",
          "price": "Price of a pool token"
        },
        "returns": {
          "_0": "Quantity of settlement tokens to return to the user after `amount` pool tokens are burnt."
        }
      },
      "getLossAmount(bytes16,uint256)": {
        "params": {
          "balance": "The balance of the losing pool",
          "lossMultiplier": "The multiplier to use"
        }
      },
      "getLossMultiplier(bytes16,int8,bytes16)": {
        "params": {
          "direction": "The direction of the change. -1 if it's decreased, 0 if it hasn't changed, and 1 if it's increased",
          "leverage": "The amount of leverage to apply",
          "ratio": "The ratio of new price to old price"
        },
        "returns": {
          "_0": "The multiplier"
        }
      },
      "getMint(bytes16,uint256)": {
        "details": "Throws if price is zero, or IEEE754 negative zero`getMint()`",
        "params": {
          "amount": "Amount of settlement tokens being used to mint",
          "price": "Price of a pool token"
        },
        "returns": {
          "_0": "Quantity of pool tokens to mint"
        }
      },
      "getMintAmount(uint256,uint256,uint256,uint256)": {
        "details": "Calculated as (tokenSupply + shadowBalance) * amountIn / balance",
        "params": {
          "amountIn": "Commitment amount of settlement tokens going into the pool",
          "balance": "Balance of the pool (no. of underlying settlement tokens in pool)",
          "pendingBurnPoolTokens": "Amount of pool tokens being burnt during this update interval",
          "tokenSupply": "Total supply of pool tokens"
        },
        "returns": {
          "_0": "Number of pool tokens to be minted"
        }
      },
      "getPrice(uint256,uint256)": {
        "details": "Divide the side balance by the pool token's total supply",
        "params": {
          "sideBalance": "no. of underlying settlement tokens on that side of the pool",
          "tokenSupply": "Total supply of pool tokens"
        }
      },
      "getRatio(uint256,uint256)": {
        "details": "Rounds any overflow towards 0. If either parameter is zero, the ratio is 0",
        "params": {
          "_denominator": "The \"per part\" side of the equation. If this is zero, the ratio is zero",
          "_numerator": "The \"parts per\" side of the equation. If this is zero, the ratio is zero"
        },
        "returns": {
          "_0": "the ratio, as an ABDKMathQuad number (IEEE 754 quadruple precision floating point)"
        }
      },
      "getUpdatedAggregateBalance(PoolSwapLibrary.UpdateData)": {
        "params": {
          "data": "Information needed for updating the balance including prices and recent commit amounts"
        },
        "returns": {
          "_0": "The UpdateResult struct with the data pertaining to the update of user's aggregate balance"
        }
      },
      "getWithdrawAmountOnBurn(uint256,uint256,uint256,uint256)": {
        "details": "Calculates as `balance * amountIn / (tokenSupply + shadowBalance)",
        "params": {
          "amountIn": "Commitment amount of pool tokens going into the pool",
          "balance": "Balance of the pool (no. of underlying settlement tokens in pool)",
          "pendingBurnPoolTokens": "Amount of pool tokens being burnt during this update interval",
          "tokenSupply": "Total supply of pool tokens"
        },
        "returns": {
          "_0": "Number of settlement tokens to be withdrawn on a burn"
        }
      },
      "isBeforeFrontRunningInterval(uint256,uint256,uint256,uint256)": {
        "params": {
          "frontRunningInterval": "The window of time before a price update in which users can have their commit executed from",
          "lastPriceTimestamp": "The timestamp of the last price update",
          "subjectTime": "The timestamp for which you want to calculate if it was beforeFrontRunningInterval",
          "updateInterval": "The interval between price updates"
        }
      },
      "mintingOrBurningFee(bytes16,uint256)": {
        "params": {
          "amount": "The amount of settlement tokens being committed to mint",
          "feeRate": "PoolCommitter's mintingFee or burningFee - The amount that is extracted from each mint or burn. Given as the decimal * 10 ^ 18. For example, 60% fee is 0.6 * 10 ^ 18 Fees can be 0."
        }
      },
      "mulFraction(uint256,uint256,uint256)": {
        "params": {
          "denominator": "The denominator of the fraction being multipled with `number`",
          "number": "The number with which the fraction calculated from `numerator` and `denominator` will be multiplied",
          "numerator": "The numerator of the fraction being multipled with `number`"
        },
        "returns": {
          "_0": "The result of multiplying number with numerator/denominator, as an integer"
        }
      },
      "multiplyBytes(bytes16,bytes16)": {
        "params": {
          "x": "The number to be multiplied by `y`",
          "y": "The number to be multiplied by `x`"
        }
      },
      "multiplyDecimalByUInt(bytes16,uint256)": {
        "params": {
          "a": "The first term",
          "b": "The second term"
        },
        "returns": {
          "_0": "The product of a*b as a decimal"
        }
      },
      "processBurnInstantMintCommit(uint256,bytes16,bytes16,bytes16)": {
        "details": "Takes out the burn fee before taking out the mint fee.",
        "params": {
          "amount": "The amount of pool tokens being flipped",
          "burnPrice": "The price of the pool token being burnt",
          "burningFee": "Fee rate for pool token burns",
          "mintingFee": "Fee rate for mints"
        },
        "returns": {
          "_0": "Amount of settlement tokens used to mint.",
          "_1": "The burn fee. This should be given to the side of the pool of the burnt tokens.",
          "_2": "The mint fee. This should be given to the side of the pool that is being minted into."
        }
      },
      "subtractBytes(bytes16,bytes16)": {
        "params": {
          "x": "The number to be subtracted by `y`",
          "y": "The number to subtract from `x`"
        }
      }
    },
    "title": "Library for various useful (mostly) mathematical functions",
    "version": 1
  },
  "userdoc": {
    "kind": "user",
    "methods": {
      "MAX_DECIMALS()": {
        "notice": "Maximum number of decimal places supported by this contract (ABDKMathQuad defines this but it's private)"
      },
      "ONE()": {
        "notice": "ABDKMathQuad-formatted representation of the number one"
      },
      "WAD_PRECISION()": {
        "notice": "Maximum precision supportable via wad arithmetic (for this contract)"
      },
      "addBytes(bytes16,bytes16)": {
        "notice": "Performs an addition on two bytes16 numbers"
      },
      "appropriateUpdateIntervalId(uint256,uint256,uint256,uint256,uint256)": {
        "notice": "Calculates the update interval ID that a commitment should be placed in."
      },
      "calculateValueTransfer(uint256,uint256,bytes16,int256,int256,bytes16)": {
        "notice": "Calculates the effect of a price change. This involves calculating how many funds to transfer from the losing pool to the other."
      },
      "compareDecimals(bytes16,bytes16)": {
        "notice": "Compares two decimal numbers"
      },
      "convertDecimalToUInt(bytes16)": {
        "notice": "Converts a raw decimal value to a more readable uint256 value"
      },
      "convertUIntToDecimal(uint256)": {
        "notice": "Converts an integer value to a compatible decimal value"
      },
      "divInt(int256,int256)": {
        "notice": "Divides two integers"
      },
      "fromWad(uint256,uint256)": {
        "notice": "Converts from a WAD to normal value"
      },
      "getBalancesAfterFees(uint256,uint256,uint256)": {
        "notice": "Gets the short and long balances after the keeper rewards have been paid out         Keeper rewards are paid proportionally to the short and long pool"
      },
      "getBurn(bytes16,uint256)": {
        "notice": "Calculate the number of settlement tokens to return, based on a price and an amount of pool tokens being burnt"
      },
      "getLossAmount(bytes16,uint256)": {
        "notice": "Calculates the amount to take from the losing pool"
      },
      "getLossMultiplier(bytes16,int8,bytes16)": {
        "notice": "Calculates the loss multiplier to apply to the losing pool. Includes the power leverage"
      },
      "getMint(bytes16,uint256)": {
        "notice": "Calculates the number of pool tokens to mint, given some settlement token amount and a price"
      },
      "getMintAmount(uint256,uint256,uint256,uint256)": {
        "notice": "Gets the number of pool tokens to be minted based on existing tokens"
      },
      "getPrice(uint256,uint256)": {
        "notice": "Get the Settlement/PoolToken price, in ABDK IEE754 precision"
      },
      "getRatio(uint256,uint256)": {
        "notice": "Calculates the ratio between two numbers"
      },
      "getUpdatedAggregateBalance(PoolSwapLibrary.UpdateData)": {
        "notice": "Calculate the change in a user's balance based on recent commit(s)"
      },
      "getWithdrawAmountOnBurn(uint256,uint256,uint256,uint256)": {
        "notice": "Gets the number of settlement tokens to be withdrawn based on a pool token burn amount"
      },
      "isBeforeFrontRunningInterval(uint256,uint256,uint256,uint256)": {
        "notice": "Returns true if the given timestamp is BEFORE the frontRunningInterval starts"
      },
      "mintingOrBurningFee(bytes16,uint256)": {
        "notice": "Calculate the amount of settlement tokens to take as the minting fee"
      },
      "mulFraction(uint256,uint256,uint256)": {
        "notice": "Multiply an integer by a fractionnumber * numerator / denominator"
      },
      "multiplyBytes(bytes16,bytes16)": {
        "notice": "Multiplies two numbers"
      },
      "multiplyDecimalByUInt(bytes16,uint256)": {
        "notice": "Multiplies a decimal and an unsigned integer"
      },
      "processBurnInstantMintCommit(uint256,bytes16,bytes16,bytes16)": {
        "notice": "Given an amount of pool tokens to flip to the other side of the pool, calculate the amount of settlement tokens generated from the burn, burn fee, and subsequent minting fee"
      },
      "subtractBytes(bytes16,bytes16)": {
        "notice": "Performs a subtraction on two bytes16 numbers"
      }
    },
    "version": 1
  },
  "storageLayout": {
    "storage": [],
    "types": null
  }
}